{
  "contractName": "TokenVesting",
  "abi": [
    {
      "inputs": [
        {
          "internalType": "address",
          "name": "token_",
          "type": "address"
        }
      ],
      "stateMutability": "nonpayable",
      "type": "constructor"
    },
    {
      "anonymous": false,
      "inputs": [
        {
          "indexed": true,
          "internalType": "address",
          "name": "previousOwner",
          "type": "address"
        },
        {
          "indexed": true,
          "internalType": "address",
          "name": "newOwner",
          "type": "address"
        }
      ],
      "name": "OwnershipTransferred",
      "type": "event"
    },
    {
      "anonymous": false,
      "inputs": [
        {
          "indexed": true,
          "internalType": "address",
          "name": "investor",
          "type": "address"
        },
        {
          "indexed": false,
          "internalType": "uint256",
          "name": "amount",
          "type": "uint256"
        }
      ],
      "name": "RewardPaid",
      "type": "event"
    },
    {
      "inputs": [],
      "name": "INITIAL_CLIFF",
      "outputs": [
        {
          "internalType": "uint256",
          "name": "",
          "type": "uint256"
        }
      ],
      "stateMutability": "view",
      "type": "function"
    },
    {
      "inputs": [],
      "name": "PERCENTAGE",
      "outputs": [
        {
          "internalType": "uint256",
          "name": "",
          "type": "uint256"
        }
      ],
      "stateMutability": "view",
      "type": "function"
    },
    {
      "inputs": [],
      "name": "PERIOD",
      "outputs": [
        {
          "internalType": "uint256",
          "name": "",
          "type": "uint256"
        }
      ],
      "stateMutability": "view",
      "type": "function"
    },
    {
      "inputs": [],
      "name": "VESTING_TIME",
      "outputs": [
        {
          "internalType": "uint256",
          "name": "",
          "type": "uint256"
        }
      ],
      "stateMutability": "view",
      "type": "function"
    },
    {
      "inputs": [],
      "name": "initialTimestamp",
      "outputs": [
        {
          "internalType": "uint256",
          "name": "",
          "type": "uint256"
        }
      ],
      "stateMutability": "view",
      "type": "function"
    },
    {
      "inputs": [],
      "name": "initialTimestampSetted",
      "outputs": [
        {
          "internalType": "bool",
          "name": "",
          "type": "bool"
        }
      ],
      "stateMutability": "view",
      "type": "function"
    },
    {
      "inputs": [
        {
          "internalType": "address",
          "name": "",
          "type": "address"
        }
      ],
      "name": "investorInfo",
      "outputs": [
        {
          "internalType": "uint256",
          "name": "tokenAmount",
          "type": "uint256"
        },
        {
          "internalType": "enum TokenVesting.allocation",
          "name": "allocationType",
          "type": "uint8"
        },
        {
          "internalType": "uint256",
          "name": "paidAmount",
          "type": "uint256"
        }
      ],
      "stateMutability": "view",
      "type": "function"
    },
    {
      "inputs": [],
      "name": "owner",
      "outputs": [
        {
          "internalType": "address",
          "name": "",
          "type": "address"
        }
      ],
      "stateMutability": "view",
      "type": "function"
    },
    {
      "inputs": [],
      "name": "renounceOwnership",
      "outputs": [],
      "stateMutability": "nonpayable",
      "type": "function"
    },
    {
      "inputs": [],
      "name": "startDate",
      "outputs": [
        {
          "internalType": "uint256",
          "name": "",
          "type": "uint256"
        }
      ],
      "stateMutability": "view",
      "type": "function"
    },
    {
      "inputs": [],
      "name": "token",
      "outputs": [
        {
          "internalType": "contract RewardToken",
          "name": "",
          "type": "address"
        }
      ],
      "stateMutability": "view",
      "type": "function"
    },
    {
      "inputs": [
        {
          "internalType": "address",
          "name": "newOwner",
          "type": "address"
        }
      ],
      "name": "transferOwnership",
      "outputs": [],
      "stateMutability": "nonpayable",
      "type": "function"
    },
    {
      "inputs": [],
      "name": "vestingTimeEnd",
      "outputs": [
        {
          "internalType": "uint256",
          "name": "",
          "type": "uint256"
        }
      ],
      "stateMutability": "view",
      "type": "function"
    },
    {
      "inputs": [
        {
          "internalType": "uint256",
          "name": "initialTimestamp_",
          "type": "uint256"
        }
      ],
      "name": "setInitialTimestamp",
      "outputs": [],
      "stateMutability": "nonpayable",
      "type": "function"
    },
    {
      "inputs": [
        {
          "internalType": "address[]",
          "name": "investor_",
          "type": "address[]"
        },
        {
          "internalType": "uint256[]",
          "name": "tokenAmount_",
          "type": "uint256[]"
        },
        {
          "internalType": "enum TokenVesting.allocation[]",
          "name": "allocationType_",
          "type": "uint8[]"
        }
      ],
      "name": "addInvestors",
      "outputs": [],
      "stateMutability": "nonpayable",
      "type": "function"
    },
    {
      "inputs": [],
      "name": "withdrawTokens",
      "outputs": [],
      "stateMutability": "nonpayable",
      "type": "function"
    },
    {
      "inputs": [
        {
          "internalType": "enum TokenVesting.allocation",
          "name": "allocationType_",
          "type": "uint8"
        }
      ],
      "name": "_calculateUnlockedPercentage",
      "outputs": [
        {
          "internalType": "uint256",
          "name": "",
          "type": "uint256"
        }
      ],
      "stateMutability": "view",
      "type": "function"
    }
  ],
  "bytecode": "0x60806040523480156200001157600080fd5b5060405162001ef338038062001ef38339818101604052810190620000379190620001f5565b620000576200004b6200011260201b60201c565b6200011a60201b60201c565b600073ffffffffffffffffffffffffffffffffffffffff168173ffffffffffffffffffffffffffffffffffffffff161415620000ca576040517f08c379a0000000000000000000000000000000000000000000000000000000008152600401620000c19062000263565b60405180910390fd5b80600160006101000a81548173ffffffffffffffffffffffffffffffffffffffff021916908373ffffffffffffffffffffffffffffffffffffffff16021790555050620002e4565b600033905090565b60008060009054906101000a900473ffffffffffffffffffffffffffffffffffffffff169050816000806101000a81548173ffffffffffffffffffffffffffffffffffffffff021916908373ffffffffffffffffffffffffffffffffffffffff1602179055508173ffffffffffffffffffffffffffffffffffffffff168173ffffffffffffffffffffffffffffffffffffffff167f8be0079c531659141344cd1fd0a4f28419497f9722a3daafe3b4186f6b6457e060405160405180910390a35050565b600081519050620001ef81620002ca565b92915050565b6000602082840312156200020857600080fd5b60006200021884828501620001de565b91505092915050565b60006200023060158362000285565b91507f496e76616c696420746f6b656e206164647265737300000000000000000000006000830152602082019050919050565b600060208201905081810360008301526200027e8162000221565b9050919050565b600082825260208201905092915050565b6000620002a382620002aa565b9050919050565b600073ffffffffffffffffffffffffffffffffffffffff82169050919050565b620002d58162000296565b8114620002e157600080fd5b50565b611bff80620002f46000396000f3fe608060405234801561001057600080fd5b506004361061010b5760003560e01c80638da5cb5b116100a2578063bba5545311610071578063bba5545314610260578063d6d141711461027c578063dbcbaca41461029a578063f2fde38b146102cc578063fc0c546a146102e85761010b565b80638da5cb5b146101e85780638e04193514610206578063a596194a14610224578063b4d1d795146102425761010b565b80633c23db3f116100de5780633c23db3f14610186578063527229a8146101a4578063715018a6146101d45780638d8f2adb146101de5761010b565b80630b97bc86146101105780630dea38b61461012e57806321f926db1461014c578063293315f214610168575b600080fd5b610118610306565b604051610125919061179d565b60405180910390f35b61013661030c565b604051610143919061179d565b60405180910390f35b610166600480360381019061016191906113c3565b610312565b005b610170610475565b60405161017d919061179d565b60405180910390f35b61018e610482565b60405161019b919061179d565b60405180910390f35b6101be60048036038101906101b9919061139a565b610488565b6040516101cb919061179d565b60405180910390f35b6101dc610677565b005b6101e66106ff565b005b6101f0610a05565b6040516101fd9190611643565b60405180910390f35b61020e610a2e565b60405161021b9190611687565b60405180910390f35b61022c610a41565b604051610239919061179d565b60405180910390f35b61024a610a47565b604051610257919061179d565b60405180910390f35b61027a600480360381019061027591906112da565b610a4d565b005b610284610e1b565b604051610291919061179d565b60405180910390f35b6102b460048036038101906102af91906112b1565b610e21565b6040516102c3939291906117b8565b60405180910390f35b6102e660048036038101906102e191906112b1565b610e58565b005b6102f0610f50565b6040516102fd91906116a2565b60405180910390f35b60035481565b618ca081565b61031a610f76565b73ffffffffffffffffffffffffffffffffffffffff16610338610a05565b73ffffffffffffffffffffffffffffffffffffffff161461038e576040517f08c379a00000000000000000000000000000000000000000000000000000000081526004016103859061175d565b60405180910390fd5b600560009054906101000a900460ff1680156103df576040517f08c379a00000000000000000000000000000000000000000000000000000000081526004016103d69061171d565b60405180910390fd5b6000821415610423576040517f08c379a000000000000000000000000000000000000000000000000000000000815260040161041a9061173d565b60405180910390fd5b8160028190555061025860025461043a91906118b5565b600381905550618ca060035461045091906118b5565b6004819055506001600560006101000a81548160ff0219169083151502179055505050565b68056bc75e2d6310000081565b60045481565b6000804290506000806002548310156104a75760009350505050610672565b60035483101561055057600060018111156104eb577f4e487b7100000000000000000000000000000000000000000000000000000000600052602160045260246000fd5b856001811115610524577f4e487b7100000000000000000000000000000000000000000000000000000000600052602160045260246000fd5b141561053d57678ac7230489e800009350505050610672565b67d02ab486cedc00009350505050610672565b6004548310156106625760006001811115610594577f4e487b7100000000000000000000000000000000000000000000000000000000600052602160045260246000fd5b8560018111156105cd577f4e487b7100000000000000000000000000000000000000000000000000000000600052602160045260246000fd5b14156105ef57678ac7230489e8000091506804e1003b28d92800009050610607565b67d02ab486cedc0000915068049b9ca9a69434000090505b60006101686003548561061a9190611996565b610624919061190b565b905060008268056bc75e2d631000008361063e919061193c565b610648919061190b565b9050838161065691906118b5565b95505050505050610672565b68056bc75e2d6310000093505050505b919050565b61067f610f76565b73ffffffffffffffffffffffffffffffffffffffff1661069d610a05565b73ffffffffffffffffffffffffffffffffffffffff16146106f3576040517f08c379a00000000000000000000000000000000000000000000000000000000081526004016106ea9061175d565b60405180910390fd5b6106fd6000610f7e565b565b60006002541415610745576040517f08c379a000000000000000000000000000000000000000000000000000000000815260040161073c906116fd565b60405180910390fd5b6000600660003373ffffffffffffffffffffffffffffffffffffffff1673ffffffffffffffffffffffffffffffffffffffff168152602001908152602001600020604051806060016040529081600082015481526020016001820160009054906101000a900460ff1660018111156107e6577f4e487b7100000000000000000000000000000000000000000000000000000000600052602160045260246000fd5b600181111561081e577f4e487b7100000000000000000000000000000000000000000000000000000000600052602160045260246000fd5b81526020016002820154815250509050600061083d8260200151610488565b905060008160648460000151610853919061190b565b61085d919061193c565b905060008360400151826108719190611996565b905083600001518211156108ba576040517f08c379a00000000000000000000000000000000000000000000000000000000081526004016108b19061177d565b60405180910390fd5b81600660003373ffffffffffffffffffffffffffffffffffffffff1673ffffffffffffffffffffffffffffffffffffffff16815260200190815260200160002060020181905550600160009054906101000a900473ffffffffffffffffffffffffffffffffffffffff1673ffffffffffffffffffffffffffffffffffffffff1663a9059cbb33836040518363ffffffff1660e01b815260040161095e92919061165e565b602060405180830381600087803b15801561097857600080fd5b505af115801561098c573d6000803e3d6000fd5b505050506040513d601f19601f820116820180604052508101906109b09190611371565b503373ffffffffffffffffffffffffffffffffffffffff167fe2403640ba68fed3a2f88b7557551d1993f84b99bb10ff833f0cf8db0c5e0486826040516109f7919061179d565b60405180910390a250505050565b60008060009054906101000a900473ffffffffffffffffffffffffffffffffffffffff16905090565b600560009054906101000a900460ff1681565b61025881565b61016881565b610a55610f76565b73ffffffffffffffffffffffffffffffffffffffff16610a73610a05565b73ffffffffffffffffffffffffffffffffffffffff1614610ac9576040517f08c379a0000000000000000000000000000000000000000000000000000000008152600401610ac09061175d565b60405180910390fd5b81518351148015610adb575080518351145b610b1a576040517f08c379a0000000000000000000000000000000000000000000000000000000008152600401610b11906116bd565b60405180910390fd5b6000610b24611042565b60005b8551811015610d8457848181518110610b69577f4e487b7100000000000000000000000000000000000000000000000000000000600052603260045260246000fd5b602002602001015183610b7c91906118b5565b9250848181518110610bb7577f4e487b7100000000000000000000000000000000000000000000000000000000600052603260045260246000fd5b6020026020010151826000018181525050838181518110610c01577f4e487b7100000000000000000000000000000000000000000000000000000000600052603260045260246000fd5b602002602001015182602001906001811115610c46577f4e487b7100000000000000000000000000000000000000000000000000000000600052602160045260246000fd5b90816001811115610c80577f4e487b7100000000000000000000000000000000000000000000000000000000600052602160045260246000fd5b815250508160066000888481518110610cc2577f4e487b7100000000000000000000000000000000000000000000000000000000600052603260045260246000fd5b602002602001015173ffffffffffffffffffffffffffffffffffffffff1673ffffffffffffffffffffffffffffffffffffffff1681526020019081526020016000206000820151816000015560208201518160010160006101000a81548160ff02191690836001811115610d5f577f4e487b7100000000000000000000000000000000000000000000000000000000600052602160045260246000fd5b0217905550604082015181600201559050508080610d7c90611a5b565b915050610b27565b50600160009054906101000a900473ffffffffffffffffffffffffffffffffffffffff1673ffffffffffffffffffffffffffffffffffffffff166340c10f1930846040518363ffffffff1660e01b8152600401610de292919061165e565b600060405180830381600087803b158015610dfc57600080fd5b505af1158015610e10573d6000803e3d6000fd5b505050505050505050565b60025481565b60066020528060005260406000206000915090508060000154908060010160009054906101000a900460ff16908060020154905083565b610e60610f76565b73ffffffffffffffffffffffffffffffffffffffff16610e7e610a05565b73ffffffffffffffffffffffffffffffffffffffff1614610ed4576040517f08c379a0000000000000000000000000000000000000000000000000000000008152600401610ecb9061175d565b60405180910390fd5b600073ffffffffffffffffffffffffffffffffffffffff168173ffffffffffffffffffffffffffffffffffffffff161415610f44576040517f08c379a0000000000000000000000000000000000000000000000000000000008152600401610f3b906116dd565b60405180910390fd5b610f4d81610f7e565b50565b600160009054906101000a900473ffffffffffffffffffffffffffffffffffffffff1681565b600033905090565b60008060009054906101000a900473ffffffffffffffffffffffffffffffffffffffff169050816000806101000a81548173ffffffffffffffffffffffffffffffffffffffff021916908373ffffffffffffffffffffffffffffffffffffffff1602179055508173ffffffffffffffffffffffffffffffffffffffff168173ffffffffffffffffffffffffffffffffffffffff167f8be0079c531659141344cd1fd0a4f28419497f9722a3daafe3b4186f6b6457e060405160405180910390a35050565b6040518060600160405280600081526020016000600181111561108e577f4e487b7100000000000000000000000000000000000000000000000000000000600052602160045260246000fd5b8152602001600081525090565b60006110ae6110a984611820565b6117ef565b905080838252602082019050828560208602820111156110cd57600080fd5b60005b858110156110fd57816110e388826111df565b8452602084019350602083019250506001810190506110d0565b5050509392505050565b600061111a6111158461184c565b6117ef565b9050808382526020820190508285602086028201111561113957600080fd5b60005b85811015611169578161114f8882611287565b84526020840193506020830192505060018101905061113c565b5050509392505050565b600061118661118184611878565b6117ef565b905080838252602082019050828560208602820111156111a557600080fd5b60005b858110156111d557816111bb888261129c565b8452602084019350602083019250506001810190506111a8565b5050509392505050565b6000813590506111ee81611b74565b92915050565b600082601f83011261120557600080fd5b813561121584826020860161109b565b91505092915050565b600082601f83011261122f57600080fd5b813561123f848260208601611107565b91505092915050565b600082601f83011261125957600080fd5b8135611269848260208601611173565b91505092915050565b60008151905061128181611b8b565b92915050565b60008135905061129681611ba2565b92915050565b6000813590506112ab81611bb2565b92915050565b6000602082840312156112c357600080fd5b60006112d1848285016111df565b91505092915050565b6000806000606084860312156112ef57600080fd5b600084013567ffffffffffffffff81111561130957600080fd5b611315868287016111f4565b935050602084013567ffffffffffffffff81111561133257600080fd5b61133e86828701611248565b925050604084013567ffffffffffffffff81111561135b57600080fd5b6113678682870161121e565b9150509250925092565b60006020828403121561138357600080fd5b600061139184828501611272565b91505092915050565b6000602082840312156113ac57600080fd5b60006113ba84828501611287565b91505092915050565b6000602082840312156113d557600080fd5b60006113e38482850161129c565b91505092915050565b6113f5816119ca565b82525050565b611404816119dc565b82525050565b61141381611a25565b82525050565b61142281611a49565b82525050565b60006114356015836118a4565b91507f496e76616c696420617272617973206c656e67746800000000000000000000006000830152602082019050919050565b60006114756026836118a4565b91507f4f776e61626c653a206e6577206f776e657220697320746865207a65726f206160008301527f64647265737300000000000000000000000000000000000000000000000000006020830152604082019050919050565b60006114db601c836118a4565b91507f496e697469616c2074696d657374616d70206e6f7420736574746564000000006000830152602082019050919050565b600061151b6026836118a4565b91507f496e697469616c2074696d657374616d702063616e20626520736574206f6e6c60008301527f79206f6e636500000000000000000000000000000000000000000000000000006020830152604082019050919050565b60006115816019836118a4565b91507f496e76616c696420696e697469616c2074696d657374616d70000000000000006000830152602082019050919050565b60006115c16020836118a4565b91507f4f776e61626c653a2063616c6c6572206973206e6f7420746865206f776e65726000830152602082019050919050565b60006116016014836118a4565b91507f546865207265776172647320617265206f7665720000000000000000000000006000830152602082019050919050565b61163d81611a1b565b82525050565b600060208201905061165860008301846113ec565b92915050565b600060408201905061167360008301856113ec565b6116806020830184611634565b9392505050565b600060208201905061169c60008301846113fb565b92915050565b60006020820190506116b7600083018461140a565b92915050565b600060208201905081810360008301526116d681611428565b9050919050565b600060208201905081810360008301526116f681611468565b9050919050565b60006020820190508181036000830152611716816114ce565b9050919050565b600060208201905081810360008301526117368161150e565b9050919050565b6000602082019050818103600083015261175681611574565b9050919050565b60006020820190508181036000830152611776816115b4565b9050919050565b60006020820190508181036000830152611796816115f4565b9050919050565b60006020820190506117b26000830184611634565b92915050565b60006060820190506117cd6000830186611634565b6117da6020830185611419565b6117e76040830184611634565b949350505050565b6000604051905081810181811067ffffffffffffffff8211171561181657611815611b31565b5b8060405250919050565b600067ffffffffffffffff82111561183b5761183a611b31565b5b602082029050602081019050919050565b600067ffffffffffffffff82111561186757611866611b31565b5b602082029050602081019050919050565b600067ffffffffffffffff82111561189357611892611b31565b5b602082029050602081019050919050565b600082825260208201905092915050565b60006118c082611a1b565b91506118cb83611a1b565b9250827fffffffffffffffffffffffffffffffffffffffffffffffffffffffffffffffff03821115611900576118ff611aa4565b5b828201905092915050565b600061191682611a1b565b915061192183611a1b565b92508261193157611930611ad3565b5b828204905092915050565b600061194782611a1b565b915061195283611a1b565b9250817fffffffffffffffffffffffffffffffffffffffffffffffffffffffffffffffff048311821515161561198b5761198a611aa4565b5b828202905092915050565b60006119a182611a1b565b91506119ac83611a1b565b9250828210156119bf576119be611aa4565b5b828203905092915050565b60006119d5826119fb565b9050919050565b60008115159050919050565b60008190506119f682611b60565b919050565b600073ffffffffffffffffffffffffffffffffffffffff82169050919050565b6000819050919050565b6000611a3082611a37565b9050919050565b6000611a42826119fb565b9050919050565b6000611a54826119e8565b9050919050565b6000611a6682611a1b565b91507fffffffffffffffffffffffffffffffffffffffffffffffffffffffffffffffff821415611a9957611a98611aa4565b5b600182019050919050565b7f4e487b7100000000000000000000000000000000000000000000000000000000600052601160045260246000fd5b7f4e487b7100000000000000000000000000000000000000000000000000000000600052601260045260246000fd5b7f4e487b7100000000000000000000000000000000000000000000000000000000600052602160045260246000fd5b7f4e487b7100000000000000000000000000000000000000000000000000000000600052604160045260246000fd5b60028110611b7157611b70611b02565b5b50565b611b7d816119ca565b8114611b8857600080fd5b50565b611b94816119dc565b8114611b9f57600080fd5b50565b60028110611baf57600080fd5b50565b611bbb81611a1b565b8114611bc657600080fd5b5056fea2646970667358221220311b19c8b67ef0f3aa96df3a9f6144072b3ef6fbfc7bf54f0fd479ccca99747064736f6c63430008000033",
  "immutableReferences": {},
  "source": "// SPDX-License-Identifier: MIT\r\npragma solidity ^0.8.0; \r\n\r\nimport \"@openzeppelin/contracts/access/Ownable.sol\";\r\nimport \"@openzeppelin/contracts/token/ERC20/IERC20.sol\";\r\nimport \"./RewardToken.sol\";\r\nimport \"@openzeppelin/contracts/token/ERC20/utils/SafeERC20.sol\";\r\n\r\ncontract TokenVesting is Ownable{\r\n    using SafeERC20 for IERC20;\r\n\r\n    struct Investor {\r\n        uint256 tokenAmount;\r\n        allocation allocationType;\r\n        uint256 paidAmount;\r\n    }\r\n\r\n    enum allocation { Seed, Private }\r\n\r\n    uint256 public constant PERIOD = 6 minutes;\r\n    uint256 public constant INITIAL_CLIFF = 10 minutes;\r\n    uint256 public constant VESTING_TIME = 600 minutes;\r\n    uint256 public constant PERCENTAGE = 1e20;\r\n\r\n    RewardToken public token;\r\n    uint256 public initialTimestamp;\r\n    uint256 public startDate;\r\n    uint256 public vestingTimeEnd;\r\n    bool public initialTimestampSetted;\r\n\r\n    event RewardPaid(address indexed investor, uint256 amount);\r\n\r\n    mapping(address => Investor) public investorInfo;\r\n\r\n    modifier setTimestampOnlyOnce(bool initialTimestampSetted_) {\r\n        require(!initialTimestampSetted_, \"Initial timestamp can be set only once\");\r\n        _;\r\n    }\r\n\r\n    /**\r\n     * Constructor function\r\n     *\r\n     * \r\n     */\r\n    constructor (\r\n        address token_\r\n    ) {\r\n        require(token_ != address(0), \"Invalid token address\");\r\n        token = RewardToken(token_);\r\n    }\r\n\r\n    function setInitialTimestamp(uint256 initialTimestamp_) public onlyOwner setTimestampOnlyOnce(initialTimestampSetted) {\r\n        require(initialTimestamp_ != 0, \"Invalid initial timestamp\");\r\n        initialTimestamp = initialTimestamp_;\r\n        startDate = initialTimestamp + INITIAL_CLIFF;\r\n        vestingTimeEnd = startDate + VESTING_TIME;\r\n        initialTimestampSetted = true;\r\n    }\r\n\r\n    function addInvestors(\r\n        address[] memory investor_, \r\n        uint256[] memory tokenAmount_, \r\n        allocation[] memory allocationType_\r\n    ) public onlyOwner {\r\n        require(investor_.length == tokenAmount_.length && investor_.length == allocationType_.length, \"Invalid arrays length\");\r\n        uint256 totalTokenAmount;\r\n        Investor memory investor;\r\n        for(uint i; i < investor_.length; i++) {\r\n            totalTokenAmount += tokenAmount_[i];\r\n            investor.tokenAmount = tokenAmount_[i];\r\n            investor.allocationType = allocationType_[i];\r\n            investorInfo[investor_[i]] = investor;\r\n        }\r\n        token.mint(address(this), totalTokenAmount);        \r\n    }\r\n\r\n    function withdrawTokens() public {\r\n        require(initialTimestamp != 0, \"Initial timestamp not setted\");\r\n        Investor memory investor = investorInfo[msg.sender];\r\n        uint256 availablePercentage = _calculateUnlockedPercentage(investor.allocationType);\r\n        uint256 rewardAmount = investor.tokenAmount / 100 * availablePercentage;\r\n        uint256 rewardToPay = rewardAmount - investor.paidAmount;\r\n        require(rewardAmount <= investor.tokenAmount, \"The rewards are over\");\r\n        investorInfo[msg.sender].paidAmount = rewardAmount;\r\n        token.transfer(msg.sender, rewardToPay);\r\n        emit RewardPaid(msg.sender, rewardToPay);\r\n    }\r\n    \r\n    function _calculateUnlockedPercentage(allocation allocationType_) public view returns(uint256) {\r\n        uint256 currentTimeStamp = block.timestamp;\r\n        uint256 initialPercentage;\r\n        uint256 remaindPercentage;\r\n        if(currentTimeStamp < initialTimestamp) {\r\n            return 0;\r\n        } else if(currentTimeStamp < startDate) {\r\n            if(allocationType_ == allocation.Seed) {\r\n                return 1e19;\r\n            } else {\r\n                return 15e18;\r\n            }    \r\n        }  else if(currentTimeStamp < vestingTimeEnd) {\r\n            if(allocationType_ == allocation.Seed) {\r\n                initialPercentage = 1e19;\r\n                remaindPercentage = 9e19;\r\n            } else {\r\n                initialPercentage = 15e18;\r\n                remaindPercentage = 85e18;\r\n            }\r\n            uint256 periodCount = ((currentTimeStamp - startDate) / PERIOD);\r\n            uint256 unlockedPercentage = periodCount * PERCENTAGE / remaindPercentage;\r\n            return unlockedPercentage + initialPercentage;\r\n        } else {\r\n            return PERCENTAGE;\r\n        }\r\n    }\r\n    \r\n}",
  "sourcePath": "C:/Users/Admin/Desktop/Applicature/Vesting/contracts/TokenVesting.sol",
  "compiler": {
    "name": "solc",
    "version": "0.8.0+commit.c7dfd78e.Emscripten.clang"
  },
  "schemaVersion": "3.4.1",
  "updatedAt": "2021-07-27T13:39:51.870Z",
  "devdoc": {
    "kind": "dev",
    "methods": {
      "owner()": {
        "details": "Returns the address of the current owner."
      },
      "renounceOwnership()": {
        "details": "Leaves the contract without owner. It will not be possible to call `onlyOwner` functions anymore. Can only be called by the current owner. NOTE: Renouncing ownership will leave the contract without an owner, thereby removing any functionality that is only available to the owner."
      },
      "transferOwnership(address)": {
        "details": "Transfers ownership of the contract to a new account (`newOwner`). Can only be called by the current owner."
      }
    },
    "version": 1
  },
  "userdoc": {
    "kind": "user",
    "methods": {
      "constructor": {
        "notice": "Constructor function "
      }
    },
    "version": 1
  }
}